:020000040800F2
:10000000F8370020598101089D010008638101082B
:100010009F010008A3010008A701000800000000DC
:10002000000000000000000000000000AB0100081C
:10003000AD010008000000006F810108A1B40008B4
:1000400073810108738101087381010873810108BC
:1000500073810108738101087381010873810108AC
:10006000738101087381010873810108738101089C
:10007000738101087381010873810108738101088C
:10008000738101087381010873810108738101087C
:10009000738101087381010873810108AF010008B1
:1000A000738101087381010873810108738101085C
:1000B00073810108C1010008C901000873810108AA
:1000C000738101087381010873810108738101083C
:1000D00073810108CB010008D3010008DB0100088F
:1000E000738101087381010873810108738101081C
:1000F000738101087381010873810108738101080C
:1001000073810108738101087381010873810108FB
:10011000E3010008EB010008738101087381010805
:1001200073810108738101087381010873810108DB
:1001300073810108738101087381010873810108CB
:1001400073810108738101087381010835D30008A8
:10015000738101087381010873810108F3010008AC
:10016000738101087381010873810108738101089B
:10017000738101087381010873810108738101088B
:100180007381010873810108DFF80CD019F07AFE41
:1001900000480047A1040008F8370020704700BF5E
:1001A000FEE700BFFEE700BFFEE77047704710B5EF
:1001B000802011F06EFC10B1802011F0C0FC10BD49
:1001C00010B50FF01BF810BD704710B50DF054FEC0
:1001D00010BD10B50BF0EBF910BD10B50BF0B7FA70
:1001E00010BD10B50BF06FFB10BD10B50BF04BFC44
:1001F00010BD10B50EF095FF10BD000010B517F042
:10020000BDFF012017F0C5FF10BD70B502460020EC
:100210000AE0145C864B1D781B785B1C844E33709F
:10022000844B5C55431CD8B28842F2DB70BD10B5DC
:100230007F4800788049097888425BDD7C480078F7
:100240007D490978401A3F281BDB00207B49087054
:100250003F207B49087000200BE077490A78097835
:10026000491C754B197073498A5C754B411C5A5473
:10027000C8B23F28F1DB40227149002019F009F88B
:100280009FE06E480078401C6C4908700846007872
:100290006C4909788842F3D10020684908706448A5
:1002A000007865490978401A65490870002015E012
:1002B0005F490978604A1278891A814208DD5E49EF
:1002C000097801445B4A525C5D4B411C5A5403E07F
:1002D00000225B4B411C5A54411CC8B23F28E7DB4B
:1002E000534800785449087040225549002018F0BE
:1002F000D0FF66E04E4800784F490978884260DABE
:100300004D480078C0F580704949097808443F2875
:100310001BDB0020494908703F2049490870002034
:100320000BE045490A780978491C434B197041494B
:100330008A5C434B411C5A54C8B23F28F1DB40222F
:100340003F49002018F0A5FF3BE03C480078401CE6
:100350003A490870084600783A490978884230D10D
:100360000020364908703448007840423049097806
:10037000084433490870002018E02F490978C1F576
:1003800080712B4A12781144814209DD2A4909788B
:100390000144C9B2274A525C294B411C5A5403E01C
:1003A0000022274B411C5A54411CC8B23F28E4DBB1
:1003B0001F4800782049087040222149002018F089
:1003C00068FF10BD10B50446012C02D0032C11D1DA
:1003D0000EE059B923B1012B05D0022B04D100E066
:1003E00000BF402010BD00BF00BF00BF00BF01E044
:1003F0000120F7E700BF0020F4E72DE9F0470646AB
:10040000884614469946089F022E02D0032E0CD12E
:100410000AE0012504E0605D01F0E4F9681CC5B262
:100420002078A842F7DA00E000BF00BFBDE8F087FF
:1004300002000020DC040020010000200300002056
:10044000DC0500200000002018F016BE70470020D8
:100450007047002070470020704700207047002040
:100460007047002070470020704700207047002030
:100470007047002070470020704700207047002020
:1004800070470020704718F01EBE7047002070476C
:100490000020704718F062BC7047000000BFFEE704
:1004A00000F00CF90349087000F0ABF801E000F02F
:1004B000CEF8FCE7A011002010B5784840687749D5
:1004C00008600AF09CFF754948607549C860734828
:1004D000406872490968401A7049886008F0B6FDA2
:1004E000012005F00FFD012008F0D6FD08F034FED4
:1004F0000DF010FD6B49012006F0BCFE012007F055
:1005000010F99FED690A03F005FB01F072F90AF09A
:1005100076FF6349086108460069C968401A604966
:10052000486110BD10B59FED610A06F082FC022003
:1005300008F076FB022002F022FB10BD10B504F09B
:1005400026FE58489FED5A0A06F0A0F99FED580A7A
:100550000EF006FD10BD10B50AF051FF50490860BD
:100560000A2001F0D7FB0A2007F08EF90A2008F0D4
:1005700004FE0A200DF0EFFC9FED4E0A05F09AFFF5
:100580009FED4C0A05F09EFE9FED4A0A01F00EFC1D
:100590000A2009F07FF80AF032FF41494860084616
:1005A00040680968401A3E49886010BD10B519F0CE
:1005B000D1F9142008F0B7FD142001F0DEFD14205D
:1005C00003F069FC3749142007F0B5FA14200EF047
:1005D000A5F8142002F069FE142002F0AEFF1420EA
:1005E00002F026FC10BD10B5322008F021FC3220AC
:1005F0000DF0CFFD10BD10B54FF4FA7009F0E2FB1D
:1006000010BD002000BF1FE000EB40012A4A02EBB2
:10061000810189884FF47A7292FBF1F100EB40027C
:10062000254B03EB8202D18000EB40011A4602EB1E
:100630008101C988012905DA012100EB400203EBA1
:100640008202D180411CC8B20728DDD3704770B543
:10065000002400BF1EE00AF00DFF054604EB440035
:10066000154901EB80008068281A04EB4401124A06
:1006700002EB8101C98888420AD304EB4400114689
:1006800001EB8000856004EB440152F821008047B3
:10069000601CC4B2072CDED370BD000040090020EE
:1006A0004C090020AC0D00206F12833A6F12033BFF
:1006B0000AD7A33B0AD7233C1000002010B54FF403
:1006C00080600EF0CFFD0AF068FE64200AF0C0FEE4
:1006D00008F072FE0BF076FE03F007FC0EF09EFAB7
:1006E0000AF088FC64200AF0B3FE0AF0EBFB0BF082
:1006F0002DFA0BF0ADFA0EF0C9F9384948700870C0
:10070000012088700BF0E2FC3449C870FFF776FDD9
:1007100064200AF09DFE32480AF0D6FE0A200AF054
:1007200097FE2F480AF09EFF4FF496400BF06AF8B0
:100730004FF4E1300BF040F90EF00CF808B900204E
:1007400000E002202749087008460078022802D1FC
:100750000DF090FE05E02348007810B920480BF01A
:1007600051F809F088F964200AF072FE06F0CEFC18
:100770000DF09BF932200AF06BFE0DF0B3FC05F092
:10078000BAFB00F03FF8184991F81A01303118F01F
:10079000B5FF16A30222AF21052000F08DFD012038
:1007A00010BD10B5044624B10121144811F0E0FC3D
:1007B00003E00121114811F0AAFC10BD10B5044658
:1007C0002CB14FF480610E4811F0D2FC04E04FF4DC
:1007D00080610B4811F09BFC10BD0000CC11002083
:1007E00020A10700640000208417002053595320E3
:1007F000696E6974204F4B2100000000000C02401C
:10080000000802400A21FE48A0F89E101421A0F81A
:10081000A4100A21A0F8AA100021A0F8B0103221DB
:10082000A0F8B610A0F8BC10A0F8C210A0F8C8102C
:10083000C821A0F8E610A0F8EC10A0F8F810642188
:10084000A0F8101100201BE000EB4002EC499031B1
:1008500001EB42014A8800EB4003EA4901EB430106
:100860004A8000EB4002E649903101EB42018A8860
:1008700000EB4003E34901EB43018A80411CC8B20D
:100880001828E1DB704770B504460D46164604F0A3
:10089000010018B131462846FFF7B7FC04F0040008
:1008A00018B1314628460AF0BEFE70BD3CB502467E
:1008B000092A7CD008DC092A7AD2DFE802F079180C
:1008C000B3FEFDFCFBFAF900302A72D008DC0D2AD9
:1008D00070D00E2A6FD00F2A6ED0202A68D1DAE2AB
:1008E000402A6AD0412A69D0FA2AF7D1D4E2C64810
:1008F00090ED1C0ABDEEC00A10EE100A00B2019085
:100900009DF804300C78601C0870C04803559DF8B1
:1009100005300C78601C0870BC480355BA4890ED4F
:100920001D0ABDEEC00A10EE100A00B201909DF83B
:1009300004300C78601C0870B44803559DF80530ED
:100940000C78601C0870B1480355AF4890ED1E0A42
:10095000BDEEC00A10EE100A00B201909DF80430FE
:100960000C78601C0870A94803559DF805300C7878
:10097000601C0870A5480355A34890ED160ABDEE0B
:10098000C00A10EE100A00B201909DF804300C78F5
:10099000601C08709D4803559DF805300C78601C5C
:1009A00008709A480355984890ED170A07E010E23E
:1009B00073E252E20EE234E26CE25CE269E2BDEE26
:1009C000C00A10EE100A00B201909DF804300C78B5
:1009D000601C08708D4803559DF805300C78601C2C
:1009E00008708A480355884890ED180ABDEEC00A81
:1009F00010EE100A00B201909DF804300C78601CD3
:100A00000870824803559DF805300C78601C08700A
:100A10007E4803557C4803780C78601C08707B483E
:100A200003553BE27A48408801909DF804300C78E9
:100A3000601C0870754803559DF805300C78601CE3
:100A40000870724803557248808801909DF8043000
:100A50000C78601C08706D4803559DF805300C78C3
:100A6000601C0870694803556948C08801909DF86A
:100A700004300C78601C0870644803559DF80530FC
:100A80000C78601C087061480355624890ED030AB9
:100A9000BDEEC00A8DED000A9DF800300C78601C98
:100AA00008705A4803559DF801300C78601C05E029
:100AB00052E10BE1EBE08EE08CE033E0087053484C
:100AC00003559DF802300C78601C08704F480355A0
:100AD0009DF803300C78601C08704C4803554A4858
:100AE00090ED1F0ABDEEC00A10EE100A00B2019090
:100AF0009DF804300C78601C0870444803559DF83C
:100B000005300C78601C08704048035500230C78B1
:100B1000601C08703D4803550C78601C08703B4809
:100B20000355BBE13C4890ED370ADFED3C0A20EE6F
:100B3000200ABDEEC00A10EE100A00B201909DF826
:100B400004300C78601C0870304803559DF805305F
:100B50000C78601C08702D4803552F4890ED380A1A
:100B6000DFED2E0A20EE200ABDEEC00A10EE100ABC
:100B700000B201909DF804300C78601C0870234886
:100B800003559DF805300C78601C08701F4803550C
:100B9000214890ED390ADFED210A20EE200ABDEE52
:100BA000C00A10EE100A00B201909DF804300C78D3
:100BB000601C0870154803559DF805300C78601CC2
:100BC00008701248035500230C78601C08700F4809
:100BD000035563E162E1124890ED050ABDEEC00ADB
:100BE0008DED000A9DF800300C78601C08700748F5
:100BF00003559DF801300C78601C0870034811E023
:100C000064090020840A0020502F0020140B0020CB
:100C100004030020B02C0020040100200000C84282
:100C20006012002003559DF802300C78601C08709B
:100C3000F74803559DF803300C78601C0870F448A1
:100C40000355F448408800909DF800300C78601CF3
:100C50000870EF4803559DF801300C78601C08704F
:100C6000EB4803559DF802300C78601C0870E8488A
:100C700003559DF803300C78601C0870E448035558
:100C800000230C78601C0870E148035506E1E24837
:100C9000C37D0C78601C0870DD480355DE48C37ABC
:100CA0000C78601C0870DA48035500230C78601C2F
:100CB0000870D74803550C78601C0870D448035559
:100CC0000C78601C0870D2480355E7E0D34890EDDB
:100CD000030ABDEEC00A10EE100A00B201909DF8A2
:100CE00004300C78601C0870C94803559DF8053025
:100CF0000C78601C0870C6480355C84890ED040A7B
:100D0000BDEEC00A10EE100A00B201909DF804304A
:100D10000C78601C0870BE4803559DF805300C78AF
:100D2000601C0870BA480355BD4890ED050ABDEE39
:100D3000C00A10EE100A00B201909DF804300C7841
:100D4000601C0870B24803559DF805300C78601C93
:100D50000870AF480355A1E0002000909DF80030D6
:100D60000C78601C0870AA4803559DF801300C7877
:100D7000601C0870A64803559DF802300C78601C72
:100D80000870A34803559DF803300C78601C087068
:100D90009F480355002000909DF800300C78601C9F
:100DA00008709B4803559DF801300C78601C087052
:100DB000974803559DF802300C78601C08709448E1
:100DC00003559DF803300C78601C0870904803555B
:100DD00064E063E0934890ED000A5FED700A20EE56
:100DE000200ABDEEC00A10EE100A00B201909DF874
:100DF00004300C78601C0870854803559DF8053058
:100E00000C78601C08708248035500230C78601C25
:100E100008707F4803550C78601C08707C480355A7
:100E20003CE0814883780C78601C08707848035552
:100E300000230C78601C0870754803557A48437984
:100E40000C78601C0870724803557748C3780C789A
:100E5000601C08706E48035520E0002008E0734BCA
:100E60001C5C0D786B1C0B70694B5C55431CD8B235
:100E70001728F4DB12E0002008E06D4B1C5C0D78B5
:100E80006B1C0B70624B5C55431CD8B21428F4DB0E
:100E900004E003E002E001E000E000BF00BF3CBD71
:100EA0002DE9F84381460D46904600200090AA2186
:100EB0009DF80020501CC0B20090554881549DF808
:100EC0000010481CC0B20090514800F80180182D55
:100ED00001DBBDE8F8835748465D9DF80010481CCB
:100EE000C0B200904A48465400219DF80020501C92
:100EF000C0B200904648815469463046FFF7D6FCA0
:100F00009DF80000001F4249C870002400270020FF
:100F100007E03F49095C2144CCB23919CFB2411CEA
:100F2000C8B29DF800108842F3DB9DF80010481C01
:100F3000C0B20090364844549DF80010481CC0B21E
:100F40000090334847549DF8002001464846FFF77B
:100F50009AFC00BFBDE7F0B503460C4600212BE02C
:100F600001EB410000EB8110334D285C10BB01EB1D
:100F7000410000EB81102844437001EB410000EB7D
:100F800081102844827000200AE0265C01EB4105B4
:100F900005EB8115284F3D44ED1C2E54451CE8B24D
:100FA0009042F2DB012001EB410505EB8115224E59
:100FB0007055F0BD481CC1B20529D1DB0020F8E70F
:100FC00070B500243CE004EB440000EB84101A49A7
:100FD000085CE0B104EB440303EB84130D462B449F
:100FE0009A7804EB440303EB84132B44D91C04EBE1
:100FF000440303EB84132B445878FFF744FC002090
:1010000004EB440101EB84112A46505470BD15E0F5
:10101000140B0020AC020020A01100201C1700209F
:10102000481200202C030020F0000020142E002085
:10103000D42E002090A00108540B0020601CC4B2E4
:10104000052CC0DB00BF70BD70B50446012C04D078
:10105000022C14D0042C37D121E001EB4106F94DCC
:1010600005EB4605AA1C01EB4106F64D05EB4605CE
:10107000281D01EB4106F34D05EB460325E001EB8E
:101080004105F14E06EB4505AA1C01EB410506EBB7
:101090004505281D01EB410506EB450315E001EB75
:1010A0004106E84D903D05EB4605AA1C01EB4106C3
:1010B000E44D903D05EB4605281D01EB4106E14D51
:1010C000903D05EB460300E070BD00BF182900DB32
:1010D000FAE7158855B105881688B54203DA058800
:1010E0006D1C058002E001251D70058000BFEBE747
:1010F0002DE9F04107460C46012F04D0022F09D0FC
:10110000042F16D10DE0AF2604EB4401CD4800EBCF
:10111000410511E0FF2604EB4400CB4901EB4005FB
:101120000AE0AF2604EB4401C648903800EB4105C5
:1011300002E00020BDE8F08100BF182C01DB002098
:10114000F8E7287840B1002028703246214638461A
:10115000FFF7A6FE0120EDE70020EBE72DE9F05FA9
:1011600082460E4617469846DDF828B00024AA228B
:101170002146641CB54842542146641C4654002252
:101180002146641C42542146641C42542146641C7E
:1011900047542146641C00F801802146641C00F875
:1011A00001B0201FA949C87000254FF00009002098
:1011B00009E0A649095C2944CDB209EB050101F01B
:1011C000FF09411CC8B2A042F3DB2046611CCCB22F
:1011D0009E490D542046611CCCB29C4901F80090F8
:1011E00022465046FFF7B7FEBDE8F09F2DE9F741D4
:1011F00081B080460E4600200090BDF80C0008F03B
:101200001AFE00900024AA222146641C8F484254F2
:101210002146641C4654E2222146641C42540022AA
:101220002146641C42549DF80C202146641C425403
:101230009DF80D202146641C42549DF80020214653
:10124000641C42549DF801202146601CC4B27F48B2
:1012500042549DF802202046611CCCB27B490A54BE
:101260009DF803202046611CCCB278490A54201F07
:10127000C87000250027002007E07449095C294454
:10128000CDB27919CFB2411CC8B2A042F5DB2046DD
:10129000611CCCB26D490D542046611CCCB26B4927
:1012A0000F5422464046FFF756FEBDE8FF8100BFBF
:1012B00000BF00BF00BF70472DE9F05F834688463E
:1012C00091461E460024AA222146641C5F484254CF
:1012D0002146641C00F80180A0222146641C42546F
:1012E00000222146641C42542146641C00F80190EF
:1012F00092460CE05046411C01F0FF0A325C204649
:10130000611CCCB251490A54322C00DD03E016F8BE
:101310000A000028EED100BF201F4C49C8700025EC
:101320000027002007E04949095C2944CDB279191A
:10133000CFB2411CC8B2A042F5DB2046611CCCB242
:1013400042490D542046611CCCB240490F542246FC
:101350005846FFF700FEBDE8F09F2DE9F8438046B0
:101360000C46154600260027E178A81F814201D0CF
:10137000BDE8F883002006E0215C3144CEB2B91903
:10138000CFB2411CC8B2A91E8142F5DC601910F829
:10139000020CB04204D1601910F8010CB84200D020
:1013A000E6E7A078402876D0A0784128FBD0A07846
:1013B0003028F8D0A0783228F5D0A0783328F2D0A1
:1013C000A0783428EFD0A0780D28ECD0A078E028C1
:1013D0007AD12079012804D010285DD0112874D149
:1013E00090E0607968BBA079012853D0A0790228E9
:1013F00050D0A07903284DD0A07904284AD0A079F4
:10140000052847D0A079102844D0A079612841D080
:10141000A07962283ED0A079AA2802D108F088FBE2
:1014200038E0A079AB2803D1012008F01AFC31E0A4
:10143000A079AC282ED108F07BFB022008F011FC2B
:1014400028E005E0840A002064090020A30C0020A5
:101450006079012800D11DE0607930281AD1A07987
:1014600001280AD1F748C07AA0B90120F64988704E
:101470000020F64981F81A010CE0A079022809D170
:10148000F048C07A30B90220F14908700020EF49D5
:1014900081F81B0138E05FE0607958BBA07907282C
:1014A0001FD007DC072823D2DFE800F0221516172B
:1014B00018191A00602818D008DC082812D009284A
:1014C00011D00A2814D10FE027E01CE061280DD0CC
:1014D00062280DD10BE00CE00BE00AE009E008E027
:1014E00007E006E005E004E003E002E001E000E0E0
:1014F00000BF06E06079012803D06079022800D09F
:1015000000BF01E000E000BF00BF0097A2783346B3
:10151000AF214046FFF722FE1EE0A078E0B1A078A0
:10152000E12805D1A288AF214046FFF75FFE13E016
:10153000A078E2280CD1D4F80610A08808F0BDFFEE
:101540000097A2783346AF214046FFF707FE03E03D
:10155000A078602800D000BF00BF09E770B504463E
:101560000D4604EB440000EB8410BA49084490F89F
:101570004200072875D2DFE800F00416374875CB23
:10158000F600AA2D0ED1012004EB440101EB8411D9
:10159000B04A114481F8420004EB440000EB84108F
:1015A00011460D5415E1052D03D0FF2D01D0052D59
:1015B00010D1022004EB440101EB8411A54A11442F
:1015C00081F8420004EB440000EB8410114608440B
:1015D000457008E0002004EB440101EB84119D4AB2
:1015E000114481F84200F4E0032004EB440101EBD4
:1015F0008411984A114481F8420004EB440000EB46
:101600008410114608448570E3E03B2D1FDA042066
:1016100004EB440101EB84118E4A114481F842002D
:1016200004EB440000EB841011460844C57004EB41
:10163000440000EB8410084480F84050002004EB84
:10164000440101EB8411114481F8410008E00020BD
:1016500004EB440101EB84117E4A114481F84200FD
:10166000B7E0ACE004EB440000EB84107949084497
:1016700090F84000002841DD04EB440000EB8410AA
:10168000084490F84000401E04EB440101EB841133
:10169000704A114481F8400004EB440000EB8410D0
:1016A0001146084490F8410004EB440101EB841119
:1016B000114491F84110491C04EB440202EB8412DE
:1016C000644B1A4482F84110001D04EB440101EB05
:1016D00084111A4611440D5404EB440000EB8410AD
:1016E0001146084490F8400088B9052004EB4401F5
:1016F00001EB8411114481F8420008E0002004EB62
:10170000440101EB8411534A114481F8420060E026
:10171000062004EB440101EB84114E4A114481F888
:10172000420004EB440000EB84101146084490F89A
:10173000410004EB440101EB8411114491F8411084
:10174000491C04EB440202EB8412424B1A4482F817
:101750004110001D04EB440101EB84111A461144B1
:101760000D5436E0FFE7002004EB440101EB841147
:10177000384A114481F8420004EB440000EB841025
:101780001146014404EB440000EB8410104490F82F
:101790004100001D0D5404EB440000EB8410114681
:1017A000084490F84100401DC6B204EB440000EB31
:1017B0008410811832462046FFF7CFFD09E0002053
:1017C00004EB440101EB8411224A114481F84200E8
:1017D00000BF00BF70BD10B5044621460420FFF7CE
:1017E000BDFE10BD10B5044621460120FFF7B6FE30
:1017F00010BD10B5FFF7E4FB002409E021460420EA
:10180000FFF722FC21460120FFF71EFC601CC4B23A
:10181000182CF3DB002405E021460420FFF768FCC8
:10182000601CC4B2182CF7DB002405E0214601201F
:10183000FFF75EFC601CC4B2182CF7DBFEF7F7FC68
:1018400010BD0000A0110020C40400208417002057
:1018500004030020E30C002070B5DDE904452BB142
:101860000E882EB10E8806440E8001E001260E80FF
:101870000E88964202DB2C7000260E8070BD7CB56F
:101880000546FE480079022824DCFD48407808BB64
:10189000FC484078B8B1FB480078A0B1F948C0785E
:1018A00050B1F648407818B10020F449487214E06D
:1018B0000120F249487210E00120F34948720220E9
:1018C000EE49487209E00120EF49C8710320EB4955
:1018D000487202E00420E9494872E848C07A0028CA
:1018E00040D1E648807A002849D0E448407A50B98F
:1018F000E248807AE149C872E4A30222AF210520C0
:10190000FFF7DAFC3BE00020DC4988720846407AA9
:10191000012806D1E0A30222AF210520FFF7CCFC6D
:101920002DE0D648407A022806D1DBA30222AF215F
:101930000520FFF7C1FC22E0D048407A032806D1F9
:10194000D5A30222AF210520FFF7B6FC17E0CB4854
:10195000407A042813D1D4A30222AF210520FFF737
:10196000ABFC0CE0C548807A28B9D5A30222AF2190
:101970000520FFF7A1FCC148807AC049C872D5484C
:10198000B0F9040010F5967F7EDAD248B0F906006F
:10199000002803DDCF48B0F9060003E0CD48B0F9D8
:1019A0000600404200EE100AB8EEC00AF3EE0E0A3E
:1019B000B4EEE00AF1EE10FA14DDC648B0F9020008
:1019C00000EE100AB8EEC00AFBEE0E0AB4EEE00A12
:1019D000F1EE10FA06D2A948407B30B90120A749A0
:1019E000487302E00020A5494873BA48B0F90200E4
:1019F00010F5967F12DAB748B0F90000B0F5967F7F
:101A00000CDDB448B0F9060010F5967F06DA012027
:101A1000B14908700220994948731BE0AD48B0F9FC
:101A2000020010F5967F12DAAA48B0F9000010F50E
:101A3000967F0CDAA748B0F90600B0F5967F06DD70
:101A40000120A549087002208C49487302E000205B
:101A5000A149087000248948C07A28B100BF4FF41A
:101A600096709E49088004E002244FF4FA709B4966
:101A7000088082480A30CDE90040974803789748AB
:101A800002889749284600E002E0FFF7E5FE08E0FB
:101A900000207A4948730846807A022801D1012043
:101AA00088728C48B0F9040010F5AF7F03DD002088
:101AB0007249087302E00120704908737CBD002060
:101AC00005E00021834A22F81010411CC8B2042806
:101AD000F7DB8048B0F90400002802DD00207D49D2
:101AE000888000207B4908804880C8806348C07A8D
:101AF00048B17C48407918B903206049C87402E0B5
:101B000001205E49887101205F49C8727047F0B5B5
:101B100005AC70CC5CB100270F80CF788FB98F787F
:101B200017B18F787F1C8F700127CF7009E00027D5
:101B3000CF700F8807440F800F889F4201DD012777
:101B40008F708F78974202DD357000278F70F0BD5F
:101B50001EB504464948C07A00286ED14748007B2C
:101B6000002873D05B48B0F9020010F5AF7F17DA98
:101B70005848B0F90000B0F5AF7F11DD5548B0F915
:101B8000040010F5AF7F0BDA5248B0F90600B0F54B
:101B9000AF7F05DD0120544908705449087004E006
:101BA000002051490870514908704A48B0F90200B4
:101BB000B0F5AF7F15DD4748B0F90000B0F5AF7F55
:101BC0000FDD4448B0F9040010F5AF7F09DA414851
:101BD000B0F9060010F5AF7F03DA01204449087020
:101BE00002E00020424908703A48B0F90200B0F51E
:101BF000AF7F15DD3748B0F90000B0F5AF7F0FDDDE
:101C00003448B0F9040010F5AF7F09DA3148B0F973
:101C10000600B0F5AF7F03DD01203649087002E011
:101C20000020344908702B48B0F90200B0F5AF7FAE
:101C300004DD01203049087008E06AE02548B0F969
:101C40000200322802DA00202B4908702B480121BB
:101C5000CDE90010254803784FF47A7228492046D0
:101C6000FFF7FAFD27480121234A12784FF47A73CF
:101C7000CDE9002102900522234947E0A011002070
:101C8000A6030020CC11002074170020556E6C6F45
:101C9000636B204F4B210000556E6C6F636B2046C9
:101CA00061696C2100000000506F776572204C6FF5
:101CB000772C556E6C6F636B204661696C21000058
:101CC0004643204F7574707574204C6F636B656468
:101CD00021200000AC0D0020680000206A000020D8
:101CE00066000020F0000020770000207600002031
:101CF00078000020790000207A000020C70400202E
:101D00006C00002004030020720000202046FFF732
:101D1000FEFE1EBD10B504461F48007890B300209B
:101D200021E01E4931F81010A1F2DC5109B21C4A21
:101D300022F81010114631F9101011F5FA7F01DC6C
:101D400018490BE0164931F91010B1F5FA7F02DDA0
:101D50004FF4FA7102E0124931F91010104A22F8DA
:101D60001010411CC8B20828DBDB2046FFF787FDB6
:101D70002046FFF7EDFE09483A3890F8390010B1D7
:101D8000FFF79DFE06E00848C07A012802D1002036
:101D90000549C87210BD0000A0110020D42E0020FB
:101DA000AC0D00200CFEFFFF7417002008B5C948D9
:101DB000D0ED000A9FEDC81AF4EEC10AF1EE10FA58
:101DC0000BD2D0ED000AB7EE001A70EE810AC0ED1A
:101DD000000A0120C149887002E00020BF498870D4
:101DE000BC48D0ED010A9FEDBC1AF4EEC10AF1EE39
:101DF00010FA0BD2D0ED010AB7EE001A70EE810A8C
:101E0000C0ED010A01208DF8000002E000208DF8ED
:101E10000000B048D0ED020A9FEDAF1AF4EEC10AFF
:101E2000F1EE10FA0BD2D0ED020AB7EE001A70EE06
:101E3000810AC0ED020A01208DF8010002E00020B5
:101E40008DF801009DF8000030B19DF8010018B137
:101E50000120A249C87002E00020A049C87008BD56
:101E600030B500220024C5788B1F9D4200D030BDC4
:101E7000002306E0C55C1544EAB2A518ECB25D1C6F
:101E8000EBB28D1E9D42F5DC431813F8023C9342E1
:101E900004D1431813F8013CA34200D0E7E783784C
:101EA000512B38D103795BB943798C4D6B718379B0
:101EB0005BB2AB71C3795BB2EB71037A2B7183E0D8
:101EC0000379012B12D14379844D2B72C3886B8126
:101ED0000389AB81837A2B719FED810A7D4B83ED62
:101EE000010A2B461B785B1C2B706DE00379022BDB
:101EF0006AD14379794DAB73C3882B8203896B8296
:101F00004389AB828389EB82C3892B83038A6B83EA
:101F1000837C2B7158E08378342B0DD1D0F80730B7
:101F20006E4DEB619FED6E0A6A4B83ED020A2B4604
:101F30005B785B1C6B7047E08378012B0DD1838845
:101F4000664D2B86C3886B860389AB864389EB86F7
:101F500083892B87C3896B8736E08378042B33D141
:101F6000B0F9043000EE103AB8EEC00ADFED5D0AB9
:101F700020EE200A594B83ED080AB0F9063000EE36
:101F8000103AB8EEC00ADFED570A20EE200A534B94
:101F900083ED090AB0F9083000EE103AB8EEC00A35
:101FA000DFED500A20EE200A4C4B83ED0A0AB0F90F
:101FB0000A3000EE103AB8EEC00ADFED4A0A20EE11
:101FC000200A464B83ED0B0A00BF50E710B50446CC
:101FD0004548007838B9AA2C05D10120424908703B
:101FE0004248047074E040480078012809D1052C6B
:101FF00001D0FF2C05D102203B4908703B484470BA
:1020000066E039480078022805D103203649087077
:10201000364884705CE03448007803280CD1FA2CF0
:102020000ADA0420304908703048C470304804701F
:102030000020304908704BE02B480078042819D163
:102040002B480078002815DD29480078401E2849D3
:1020500008702848007827490978491C254A1170DA
:10206000001D22490C542248007868BB05201E49F7
:1020700008702DE01C48007805280DD106201A496B
:1020800008701C4800781B490978491C194A1170CE
:10209000001D16490C541BE013480078062814D183
:1020A00000201149087013480078001D0F490C5496
:1020B0009FED0B0A074880ED000A0E480078401D8E
:1020C000C1B20A48FFF7CCFE02E0002006490870C2
:1020D00010BD00002C0E00200000FA43BC0D0020B3
:1020E0000000000017B7D1387D000020F80D002057
:1020F0007B0000207C0000200179C27801EB0221E6
:10210000FE4A11808179427901EB0221FC4A11805B
:102110008178FC4A517070470020FB49087000BF6D
:1021200028E0032818DA9FEDF90AF6492C3101EB73
:10213000800181ED000A9FEDF50AF249383101EB8B
:10214000800181ED000A9FEDF10AEE49443101EB77
:10215000800181ED000A03E00021EA4AA2F8501054
:102160000022E849143141F82020103941F820209C
:10217000411CC8B20428D4DB704710B50446E148BE
:102180004178807881421FD0FFF7C6FFE04890F881
:10219000380068B9DF48C07D012809D1DE48807861
:1021A00010B9DD48407918B10120D64908700BE01C
:1021B0000020D4490870D9A30222AF210520FFF7DF
:1021C0007BF80020CF494870CE48407806286ED072
:1021D00006DC06286CD2DFE800F06B10416CCEFD07
:1021E00009287DD004DC07287BD0082860D1ADE227
:1021F0000A2877D0A028F9D14AE0C248007860B315
:10220000C448C07C70B9C048007830BB0120BE49CA
:102210000870C6A30222AF210520FFF74DF804F095
:10222000C0FF1AE0BB48C07C022809D1C2A3022229
:10223000AF210520FFF740F80020B24948700CE0BC
:10224000B448C07C022808DDBFA30222AF210520CC
:10225000FFF732F80020AB4948708EE3AD48C07CF0
:10226000022808D1BBA30222AF210520FFF724F8E2
:1022700004F0A6FF0BE0A748C07C40B9B8A3022237
:10228000AF210520FFF718F800209E49487074E33D
:10229000A048C07A50B1B5A30222AF210520FFF7B4
:1022A0000BF800209B4988729649487065E38FE1DE
:1022B00062E39348008800EE100AB8EE400A9148A5
:1022C00080ED0D0A8E48008898B38C4800884FF442
:1022D0007A71484300EE100AF8EEC00A884802E01E
:1022E00093E2D5E1ECE20088002802DC9FED870A4A
:1022F00017E0A34890ED011A8148008800EE100A0B
:10230000B8EE400AB4EEC01AF1EE10FA03D29C48BF
:1023100090ED010A05E07A48008800EE100AB8EE58
:10232000400A80EE801ABCEEC10A764880ED070AAA
:1023300003E0FFE700217348C1617248C06830B90B
:1023400090A30222AF210520FEF7B6FF0DE06D48F5
:10235000C169C068814208D28CA30222AF21052046
:10236000FEF7AAFF0020674948706648C068011957
:102370006448C16001E362480088404200EE100AF0
:10238000B8EEC00A5F4880ED0D0A5D480088A8B32A
:102390005A4800884FF47A71484300EE100AF8EE6C
:1023A000C00A57480088002802DC9FED580A1DE04B
:1023B000734890ED020AB1EE401A5148008800EED1
:1023C000100AB8EE400AB4EEC01AF1EE10FA07D2C5
:1023D0006B4800E034E090ED020AB1EE400A05E0FF
:1023E0004748008800EE100AB8EE400A80EE801AD6
:1023F000BCEEC10A434880ED070A03E0FFE7002175
:102400004048C1613F48C06830B963A30222AF2190
:102410000520FEF751FF0DE03A48C169C0688142CE
:1024200008D260A30222AF210520FEF745FF00205D
:10243000344948703348C06801193248C1609CE291
:102440002F48008800EE100AB8EE400A2D4880EDB3
:102450000B0A2B48008878B3284800884FF47A711B
:10246000484300EE100AF8EEC00A2548008800280C
:1024700002DC9FED260A17E0414890ED001A204843
:10248000008800EE100AB8EE400AB4EEC01AF1EE71
:1024900010FA03D23A4890ED000A05E01848008887
:1024A00000EE100AB8EE400A80EE801ABCEEC10AB7
:1024B000144880ED050A03E0FFE700201149486158
:1024C0001048406830B93AA30222AF210520FEF738
:1024D000F3FE0EE00B4840690A494968884208D279
:1024E00036A30222AF210520FEF7E6FE00200549B3
:1024F0004870044840682044024967E07E0000209C
:1025000080000020380E0020820000200000000023
:102510009A2E0020A0110020F000002046432053F6
:1025200074617465204572726F72210054616B652D
:10253000206F66662100000054616B65206F66663F
:10254000204F4B2100000000434D44204572726F24
:10255000722100004C616E64696E6721000000000A
:102560004C616E64696E67204F4B2100456D65724A
:1025700067656E63792073746F70204F4B21000084
:10258000BC110020476F207570210000476F207537
:1025900070204F4B21000000476F20646F776E2141
:1025A00000000000476F20646F776E204F4B2100C2
:1025B000476F20616865616421000000476F2061FA
:1025C00068656164204F4B21000000004860D4E141
:1025D000FC480088404200EE100AB8EEC00AFA48F3
:1025E00080ED0B0AF748008878B3F84800884FF46C
:1025F0007A71484300EE100AF8EEC00AF1480088EC
:10260000002802DC1FED3F0A17E0F14890ED001AA8
:10261000EC48008800EE100AB8EE400AB4EEC01A8A
:10262000F1EE10FA03D2EA4890ED000A05E0E54821
:10263000008800EE100AB8EE400A80EE801ABCEE68
:10264000C10AE14880ED050A03E0FFE70020DE490A
:102650004861DD48406830B9DEA30222AF21052081
:10266000FEF72AFE0EE0D8484069D74949688842FB
:1026700008D2DBA30222AF210520FEF71DFE0020B9
:10268000D1494870D04840682044CF49486074E13F
:10269000CC48008800EE100AB8EE400ACA4880ED27
:1026A0000C0AC848008878B3C84800884FF47A718B
:1026B000484300EE100AF8EEC00AC248008800281D
:1026C00002DC1FED6E0A17E0C14890ED001ABD480C
:1026D000008800EE100AB8EE400AB4EEC01AF1EE1F
:1026E00010FA03D2BA4890ED000A05E0B548008818
:1026F00000EE100AB8EE400A80EE801ABCEEC10A65
:10270000B14880ED060A03E0FFE70021AE48816191
:10271000AD48806830B9B5A30222AF210520FEF78D
:10272000CBFD0DE0A84881698068814208D2B2A340
:102730000222AF210520FEF7BFFD0020A24948700C
:10274000A14880680119A048816016E19D48008871
:10275000404200EE100AB8EEC00A9B4880ED0C0A19
:102760009848008878B3994800884FF47A714843B4
:1027700000EE100AF8EEC00A92480088002802DC39
:102780001FED9E0A17E0924890ED001A8D480088D0
:1027900000EE100AB8EE400AB4EEC01AF1EE10FADC
:1027A00003D28B4890ED000A05E08648008800EED1
:1027B000100AB8EE400A80EE801ABCEEC10A8248C8
:1027C00080ED060A03E0FFE700217F4881617E4833
:1027D000806830B98BA30222AF210520FEF76CFD83
:1027E0000DE0794881698068814208D288A302227D
:1027F000AF210520FEF760FD002073494870724844
:102800008068011970488160B7E06E48008800B2A6
:102810006D49A1F850006B48008878B36B48008878
:102820004FF47A71484300EE100AF8EEC00A65488A
:102830000088002802DC1FEDCB0A17E0644890ED09
:10284000031A6048008800EE100AB8EE400AB4EEA1
:10285000C01AF1EE10FA03D25D4890ED030A05E0CC
:102860005848008800EE100AB8EE400A80EE801A40
:10287000BCEEC10A544880ED080A03E0FFE70021DE
:10288000514801625048006930B965A30222AF2166
:102890000520FEF711FD0DE04B48016A00698142F9
:1028A00008D262A30222AF210520FEF705FD002019
:1028B00045494870444800690119434801615CE09A
:1028C00040480088404200B23F49A1F850003D48CE
:1028D000008878B33D4800884FF47A71484300EE91
:1028E000100AF8EEC00A37480088002802DC1FED05
:1028F000F90A17E0364890ED031A3248008800EED6
:10290000100AB8EE400AB4EEC01AF1EE10FA03D283
:102910002F4890ED030A05E02A48008800EE100ACF
:10292000B8EE400A80EE801ABCEEC10A264880ED5F
:10293000080A03E0FFE700212348016222480069FA
:1029400030B93EA30222AF210520FEF7B5FC0DE011
:102950001D48016A0069814208D23BA30222AF21CF
:102960000520FEF7A9FC00201749487016480069A9
:1029700001191548016100E000BF00BF124840780E
:1029800008B9FFF7C9FB1048417881703248C07A16
:10299000B0B10D4A3832A2F1140101F1080001F082
:1029A000EEFE094A44322D49A2F10C0001F0C8FEA6
:1029B000054890ED0D0A80ED100A80ED130A5BE0EA
:1029C0004EE0000080000020380E00207E00002035
:1029D000BC110020476F206261636B210000000082
:1029E000476F206261636B204F4B2100476F206C63
:1029F0006566742100000000476F206C65667420D6
:102A00004F4B2100476F20726967687421000000F6
:102A1000476F207269676874204F4B2100000000E7
:102A20005475726E206C6566742100005475726E68
:102A3000206C656674204F4B210000005475726E47
:102A400020726967687421005475726E207269671C
:102A50006874204F4B210000A01100203801002095
:102A6000064890ED0D0A064880ED090A034890EDEE
:102A70000E0A034880ED0A0A10BD00000401002080
:102A8000380E0020AA49097839B9AA2805D10121B0
:102A9000A74A1170A749087070E0A5490978012973
:102AA00007D1302805D10221A14A1170A1494870EF
:102AB00064E09F490978022905D103219C4A1170DD
:102AC0009C4988705AE09A490978032905D1042164
:102AD000974A11709749C87050E0954909780429C0
:102AE0000AD10521924A11709249087192490870E1
:102AF0000521924A117041E08D490978052917D1C5
:102B00008D490978002913DD8B490978491E8A4AC5
:102B100011708A490A780978491C884B19708549CF
:102B200088548549097829BB0621814A117025E01E
:102B30007F49097806291ED100217D4A11707D49FF
:102B40007E4A127888547E49097899B9002105E0B7
:102B5000784A525C7B4B5A544A1CD1B2774A12785D
:102B60009142F5DD75490978491C774A11700121B8
:102B7000734A117002E000216D4A117070470146DE
:102B80006F48007800287DD000206D4B187000221F
:102B900000BF05E06B4B1B5C1344DAB2431CD8B298
:102BA000694B1B785B1E8342F4DC6648664B1B78DE
:102BB000184410F8010C904200D070476148C0786A
:102BC000312875D05F48C078322871D15D48C0790E
:102BD0005C4B9B7940EA032000B200EE100AB8EE8D
:102BE000C00AB1EE400ADFED590A80EE201A5848BB
:102BF00080ED041A5348407A524B1B7A40EA032076
:102C000000B200EE100AB8EEC00ADFED500A80EE06
:102C1000201A4F4880ED031A4A48C07A494B9B7AE4
:102C200040EA032000B200EE100AB8EEC00ADFED61
:102C3000470A80EE201A464880ED051A4148407B3D
:102C4000404B1B7B40EA032000B200EE100AB8EEB6
:102C5000C00AB1EE400ADFED3D0A80EE201A3C4882
:102C600080ED071A3748C07B364B9B7B40EA032038
:102C700000B200EE100AB8EEC00ADFED340A80EEB2
:102C8000201A00E018E0324880ED061A2D48407CFA
:102C90002C4B1B7C40EA032000B200EE100AB8EE79
:102CA000C00ADFED2A0A80EE201A294880ED081AB2
:102CB0000020284B188000BF26480088B0F57A7F96
:102CC00008DA244800880844224A10800120204A5B
:102CD000507002E000201E4A507000BF6DE710B532
:102CE00004461D48C07A78B90020194908701B486D
:102CF00090ED0D0A084680ED010A184890ED0E0A85
:102D0000084680ED020A02E0012011490870104ACD
:102D10002432A2F1200101F1080001F030FD0C4A3B
:102D20003032A2F12C0101F1140001F028FD10BD98
:102D300089000020C80F0020880000208A000020A1
:102D400085000020C80E0020840000200000C8423A
:102D50008C0E002086000020A0110020040100201D
:102D600010B52DED028BF0EE408AB0EE608A2A4855
:102D7000C0ED008A80ED018A02469FED280A011D00
:102D800002F0F9FDBDEC028B10BD234880ED060A70
:102D9000D0ED060A9FED221AF4EEC10AF1EE10FA08
:102DA00002D8DFED1F0A0FE01B48D0ED060A9FEDA9
:102DB0001D1AF4EEC10AF1EE10FA02DDDFED190A78
:102DC00002E01548D0ED060A1348C0ED060A704728
:102DD000114880ED070AD0ED070A9FED131AF4EEB3
:102DE000C10AF1EE10FA02D8DFED0F0A0FE00A482F
:102DF000D0ED070A9FED0D1AF4EEC10AF1EE10FABC
:102E000002DDDFED0A0A02E00348D0ED070A0248BE
:102E1000C0ED070A70470000C810002000004843BA
:102E2000000016C3000016430000C8C20000C842DC
:102E300001B534488088282802DD012032494870D5
:102E40003248C07A10B900202F4948703048807845
:102E500060B12F48C07948B12B48407830B12B4839
:102E6000007E012802D12849087002E0002026498E
:102E7000087028488078012813D1002022498870E2
:102E800008460178684600F02BFA234890ED0C1AAA
:102E9000F0EE410A90ED0B1AB0EE410AFFF760FF29
:102EA0002EE01C48807802281AD10020164988702C
:102EB00008460178684600F0BAFC184890ED061AFA
:102EC000F0EE410A90ED051AB0EE410AFFF748FF17
:102ED0001248D0ED070AB0EE600AFFF779FF0FE065
:102EE0000948807860B9012007498870DFED0C0A35
:102EF0009FED0B0AFFF734FF9FED090AFFF768FF0C
:102F000008BD0000AC0200208B000020A0110020B2
:102F1000F0000020562E0020E81000202C11002088
:102F2000000000000CB5B1F5FA7F06DA00EE101AC9
:102F3000B8EEC00AFD4A82ED000AFD4A92ED050A8C
:102F4000FC4A82ED000AFA4A92ED060AF94A82ED3D
:102F5000010AF64A92ED000ADFEDF70A20EE200A98
:102F6000F34AD2ED030A20EE200A82ED050AEF4A69
:102F700092ED000ADFEDF00A20EE200AEC4AD2EDD5
:102F8000040A20EE200A82ED060A02784FF47A73D2
:102F900093FBF2F200EE102AB8EEC00AE44AD2ED3A
:102FA000050AE44A92ED001A70EEC10A20EE200AEA
:102FB0008DED000A027893FBF2F200EE102AB8EED3
:102FC000C00ADB4AD2ED060ADA4A92ED011A70EE27
:102FD000C10A20EE200A8DED010A9DED000AD44AB7
:102FE000D2ED070A70EE600A92ED070A9FEDD31A40
:102FF00001EE200A82ED070A9DED010AD2ED080AD2
:1030000070EE600A92ED080A9FEDCC1A01EE200ADC
:1030100082ED080AD2ED070AC94AB2F9002000EE93
:10302000102AB8EEC00A30EE800AC14A82ED090AC1
:10303000D2ED080AC24AB2F9022000EE102AB8EE18
:10304000C00A30EE800ABA4A82ED0A0A0CBD017845
:1030500001EE901AF8EE611A9FEDBA2A61EE821A1B
:10306000B0EE611AB849497929B10021B04A11700E
:10307000B64A11800EE0B5490988B1F57A7F06DAC3
:103080000178B24A12881144B04A118002E001214D
:10309000A74A1170AC490989A54A5180AA49C98833
:1030A00049420AB2A2498A80A7494979002962D0D7
:1030B000DFEDA71A60EEA11AFDEEE11A11EE901AEB
:1030C00009B29B4AD180DFEDA21A60EE211AFDEE13
:1030D000E11A11EE901A0AB295490A81B1F9061067
:1030E00011F13C0F02DC6FF03B0109E09049B1F9AE
:1030F00006103C2901DD3C2102E08D49B1F90610A2
:103100008B4AD1801146B1F9081011F1500F02DC41
:103110006FF04F0109E08649B1F90810502901DD2F
:10312000502102E08249B1F90810814A1181894990
:10313000C97909B1012100E00021012907D186499F
:10314000898A7F4A11808449C98A518017E083495E
:10315000D1ED0C1AFDEEE11A11EE901A09B2784A7F
:1031600011807E49D1ED0D1AFDEEE11A11EE901A93
:1031700009B2518003E00021714A118051806C49ED
:103180000978E9BB6A49B1F90210694AB2F9062027
:10319000891A01EE901AF8EEE11A714991ED002AB0
:1031A00031EEC22AD1ED001ADFED642A42EE821A16
:1031B000C1ED001A5E49B1F90420B1F90810511AA5
:1031C00001EE901AF8EEE11A654991ED012A31EE0F
:1031D000C22AD1ED011ADFED592A42EE821AC1ED61
:1031E000011AD1ED001A91ED022A31EEC22AD1ED79
:1031F000021ADFED522A42EE821AC1ED021A00E0F5
:1032000019E0D1ED011A91ED032A31EEC22AD1ED78
:10321000031ADFED4A2A42EE821AC1ED031AD1EDFC
:10322000021A4349C1ED031A4D49D1ED031A404931
:10323000C1ED041A38E0DFED4B1A21EE212AF7EE3A
:10324000002AC2EE821AB7EE002A71EE821AF7EE59
:10325000002A82EEA12A3649D1ED031ADFED422A77
:1032600072EEE12AD1ED031A42EE221AC1ED031AE1
:10327000DFED3C1A21EE212AF7EE002AC2EE821A77
:10328000B7EE002A71EE821AF7EE002A82EEA12A2A
:10329000D1ED041ADFED342A72EEE12AD1ED041AE1
:1032A00042EE221AC1ED041A704701B52648807813
:1032B000012811D12D4890ED381AF0EE410A90ED19
:1032C000371AB0EE410A6846FFF7C1FE28488188E8
:1032D0006846FFF727FE02E001201549087008BD87
:1032E00019B3134A92ED090ADFED140A20EE200A01
:1032F000D2ED050A9FED1F1A01EE200AD2ED070A52
:103300009FED0E1A01EE200A82ED0B0A92ED0A0AD9
:10331000DFED0A0A20EE200AD2ED060A9FED151A0B
:1033200001EE200AD2ED080A26E02CE098000020E9
:10333000E81000209C0000200AD7233CCDCC4C3E56
:10334000920000206F12833A562E00209000002039
:103350009A9919C0CC110020BC0D002058110020F2
:103360001C1100209CC4A03F0000000004010020AC
:10337000AC020020CDCC4C3F1FED101A01EE200A0C
:1033800082ED0C0A06E01FED080A034A82ED0C0AE2
:1033900082ED0B0A70470000E8100020B1F5FA7FBB
:1033A00006DA00EE101AB8EEC00AFD4A82ED000AF5
:1033B000FC4A92ED030AFC4A82ED000AF84A92EDBB
:1033C000000ADFEDFA0A20EE200AF64AD2ED020AE0
:1033D00020EE200A82ED030A02784FF47A7393FB01
:1033E000F2F200EE102AB8EEC00AEE4AD2ED030A5D
:1033F000ED4A92ED001A70EEC10A20EE200AE94A69
:1034000082ED040A7047B0EE601A017801EE901A5E
:10341000F8EE611A9FEDE62A61EE821AF0EE610A7B
:10342000E449097B29B10021DE4A1170E24A11808A
:103430000EE0E1490988B1F57A7F06DA0178DE4AC3
:1034400012881144DC4A118002E00121D54A117032
:10345000D849098A494209B2D24A5180D549097BE3
:10346000F1B1DFEDD61A60EE211AFDEEE11A11EE90
:10347000901A09B291801146B1F9041011F1500F60
:1034800002DC6FF04F0109E0C649B1F90410502980
:1034900001DD502102E0C349B1F90410C14A918015
:1034A000C049097859BBBF49B1F90210BD4AB2F908
:1034B0000420891A01EE901AF8EEE11AC04991ED44
:1034C000002A31EEC22AD1ED001ADFEDBE2A42EE0B
:1034D000821AC1ED001AD1ED001A91ED012A31EEE8
:1034E000C22AD1ED011ADFEDB72A42EE821AC1EDF0
:1034F000011AD1ED011AAB49C1ED021A1CE0DFED52
:10350000B21A60EEA11AB7EE002AC2EE212AF7EE37
:10351000001A72EEA11AF7EE002A82EEA12AA14942
:10352000D1ED021ADFEDA92A72EEE12AD1ED021ADD
:1035300042EE221AC1ED021A704701B59D4880780B
:10354000022811D1A24890ED381AF0EE410A90ED10
:10355000371AB0EE410A6846FFF755FF9D4881884B
:103560006846FFF71BFF02E001208E49087008BD86
:103570009949097804297ED007DC79B1012921D045
:10358000022941D003296BD157E0052969D00C29C4
:1035900068D00D2967D01429F5D1F0E09FED8B0A92
:1035A000804981ED070A9FED890A81ED050A9FEDAB
:1035B000870A81ED060A0021884A11800121864A86
:1035C000117032E10021864A11707A49097B012984
:1035D00005D19FED840A734981ED050A13E0754911
:1035E000097B022902D17C4A11700CE07149097BE8
:1035F000032902D1784A117005E06E49097B11B99F
:103600000021754A117010E16A49097B022903D033
:103610000121714A11700FE0714909780A2905DA10
:103620006F490978491C6E4A117005E000216C4A07
:1036300011700421684A1170F7E05E49097B032983
:1036400003D00121644A117014E0654909780A2900
:103650000ADA63490978491C614A11700AE00AE0F4
:10366000E2E025E041E065E000215D4A11700521BE
:10367000594A1170D9E0B2EE040A4A4981ED050AAF
:103680009FED520A81ED060A5449098840F2DC5246
:10369000914206DA0178514A128811444F4A11804A
:1036A00005E000214D4A11800C214B4A1170BCE00D
:1036B000B2EE040A3B4981ED050A9FED440A81ED13
:1036C000060A4649098840F2DC52914206DA01783E
:1036D000424A12881144414A118005E000213F4AC4
:1036E00011800D213C4A11709FE0B3EE0E0A2D4966
:1036F00081ED050A9FED350A81ED060A9FED3A0A34
:1037000081ED070A35490988B1F57A7F06DA017833
:10371000324A12881144314A11800AE09FED2B0A87
:10372000204981ED070A00212C4A118014212A4AE0
:1037300011707AE0B3EE0E0A1A4981ED050A9FED89
:10374000230A81ED060A9FED290A81ED070A234924
:103750000988B1F57A7F06DA0178204A1288114487
:103760001E4A11800AE09FED190A0E4981ED070AF1
:1037700000211A4A11801421174A117055E001786E
:10378000164A12881144154A118011460988642985
:103790002EDA017812881144104A118043E00000AB
:1037A000B40000202C110020B80000200AD7233CD0
:1037B0006F12833A562E0020A40000209A9919C057
:1037C000A8000020CDCC4C3E9CC4A03F00000000CF
:1037D00004010020AC020020B0000020BE00002048
:1037E000BC000020000048420000B4C20000B44207
:1037F0003F490988B1F5167F0FDA01783C4A1288F3
:1038000011443B4A11801FED090A3A4981ED050A2E
:103810001FED120A81ED060A05E00021344A1180ED
:103820000121354A117000E000BF00BF704710B59C
:1038300004460B46CBB32F4890ED030ADFED2F0A69
:1038400020EE200AD0ED040A9FED2D1A01EE200A89
:1038500080ED060A2B48007B01282ED12948B0F9BB
:103860000E00404200EB4000400000EE100AB8EEAF
:10387000C00A204880ED070A90ED070ADFED220A12
:10388000B4EEE00AF1EE10FA02D89FED1F0A10E044
:10389000184890ED070ADFED1D0AB4EEE00AF1EEDC
:1038A00010FA03DD9FED190A03E00FE0114890EDD7
:1038B000070A104880ED070A04E01FED3C0A0D4896
:1038C00080ED070A2046FFF753FE0FE01FED410A87
:1038D000084880ED050A1FED430A80ED060A1FED3A
:1038E000450A80ED070A00200349087010BD00005A
:1038F000BE0000202C110020B0000020CDCC4C3F99
:10390000CDCC4C3D562E00200000C8C20000C8425D
:1039100090ED002ADFEDFC2A22EE222AF7EE002AA3
:1039200082EE823AB7EE002A33EE022AB7EE003A70
:10393000C3EE022AF54991ED002A30EE423A91EDAC
:10394000002A02EE832A81ED002A90ED002ADFEDA5
:10395000EE2A22EE222AF7EE002A82EE823AB7EE13
:10396000002A33EE022AB7EE003AC3EE022A91EDA6
:10397000012A30EEC23A91ED012A02EE832A81ED4E
:10398000012A91ED002ADFEDE22A22EE222AE14906
:1039900081ED002ADD4991ED012ADFEDDD2A22EEDD
:1039A000222ADC4981ED012A90ED002ADFEDD62A9A
:1039B00062EE222AB7EE003A83EE222AF7EE002AC0
:1039C00032EE222AB7EE003AC3EE022AD24991ED36
:1039D000082A31EE423A91ED082A02EE832A81ED5F
:1039E000082A90ED002ADFEDC82A22EE222AB7EE3F
:1039F000003AC3EE022AB7EE002A32EE822AB7EE70
:103A0000003AC3EE022A91ED092A31EEC23A91ED55
:103A1000092A02EE832A81ED092A002117E0BE4A15
:103A2000283202EB810292ED002ABB4A203202EBDF
:103A30008102D2ED002A90ED003A02EE832AB64AC6
:103A4000283202EB810282ED002A4A1CD1B20229FF
:103A5000E5DB704710B502460023B0480078B04C53
:103A60002478A0423FD0AE480078AC4C20708B78D0
:103A7000032003E00C5C6340441CE0B20C28F9DB3B
:103A8000087B984226D1A7480078401CA54C20709E
:103A9000887A20722046007AF52803D00020A08082
:103AA00060800DE008794C7940EA042000B29D4C1A
:103AB00060808878CC7840EA042000B2994CA080DD
:103AC0008879CC7940EA04204FF47A7490FBF4F0C2
:103AD000944CE0809FED940A944880ED000A012008
:103AE000904C607015E0914890ED000AF7EE000AE6
:103AF000B4EEE00AF1EE10FA08D292ED000AD0ED31
:103B0000000A30EE200A80ED000A02E00020854C19
:103B1000607010BD10B52DED020B85496846FFF7AA
:103B200099FF844890ED142AF0EE421A90ED132A82
:103B3000B0EE421A804890ED0B2AF0EE420A90ED6A
:103B40000A2AB0EE420A6846FFF7E2FE1CBD0020DA
:103B500010E09FED750A7049283101EB800181ED7D
:103B6000000A9FED710A754901EB800181ED000AA1
:103B7000411CC8B20228ECDB704770B52DED028BFA
:103B800005460C46287800EE100AB8EE400ADFED34
:103B90006C0A20EE200AB0EE408A142C01DC1420BE
:103BA00006E0B4F5FA7F02DD4FF4FA7000E020463B
:103BB00000EE100AB8EEC00A574880ED010A90EDF9
:103BC000020ADFED600A20EE200AD0ED010A20EEA5
:103BD000200A80ED040A90ED030ADFED5A0A20EE78
:103BE000200AD0ED010A20EE200A80ED050A00F13E
:103BF000180250493431103000F0C1FD46480078B9
:103C000010B101287DD10FE0012043490870B0EECA
:103C1000000A4D4880ED000AB7EE000A4B4880EDDF
:103C2000000AFFF794FFAFE03E48007AF52869D11B
:103C300000209CE03849183101EB800191ED000A29
:103C40003549283101EB8001D1ED000A30EE600AE0
:103C50003F4901EB800181ED000A384901EB800109
:103C600091ED000A3A4901EB8001D1ED000A374994
:103C700091ED001A60EE810A00EE880A2F4901EBEF
:103C8000800181ED000A2D4901EB800191ED000AD0
:103C9000DFED300AB4EEE00AF1EE10FA02D89FED43
:103CA0002D0A13E0254901EB800191ED000ADFEDBB
:103CB0002A0AB4EEE00AF1EE10FA02DD9FED260AC0
:103CC00004E01E4901EB800191ED000A1B4901EB64
:103CD000800181ED000A194901EB800191ED000A94
:103CE0001B4901EB8001D1ED000A174991ED001A43
:103CF00000EE810A0849283101EB8001D1ED000A6C
:103D00002CE03EE036E000003433FB41DC000020D4
:103D1000E12E6542C400002058110020C0000020A0
:103D20003B0400204C11002000000000E4000020B3
:103D3000702E002004010020B4120020D4000020C6
:103D40006F12833A82A8FB38E8000020EC000020C4
:103D5000CC0000200000C8C20000C84240EE080AA3
:103D6000534901EB8001C1ED000A411CC8B2022891
:103D7000FFF660AF4E4A08324E494D4800F0E0FC75
:103D800002E0FFF7E4FE00BF00BFBDEC028B70BD98
:103D900001464948007AF52812D01FED1D0A444813
:103DA000283880ED030A80ED020A4078052843DBBD
:103DB0003F4828384078401F3D4A283A50703BE041
:103DC0003D48C0884FF47A7292FBF0F03A4AB2F95B
:103DD0000220504300EE100AB8EEC00A3748D0ED7A
:103DE000010A9FED371A01EE200A3148283880ED8C
:103DF000020A3148C0884FF47A7292FBF0F02E4AE2
:103E0000B2F90420504300EE100AB8EEC00A2B4865
:103E1000D0ED000A9FED2A1A01EE600A24482838E6
:103E200080ED030A4078FA2806DC214828384078DB
:103E3000401D1F4A283A507070472248007C48B104
:103E40001B4828380078012817D100201849283944
:103E5000087012E0164828384078642804DA0020F8
:103E600013492839087008E0114828384078C828D4
:103E700003DD01200E49283908700F48407830B121
:103E80001148007818B101201049087202E00020A2
:103E90000E490872704701B5FFF7CFFF6846FFF77C
:103EA00077FF0B4801886846FFF767FE08BD0000F2
:103EB00080110020380100204C110020C400002097
:103EC000000020432002002030040020CC110020FC
:103ED000320400200748C07A08B9012000E0002021
:103EE0000549087001204870704710B505F057FF6C
:103EF00010BD0000A0110020A603002090ED031AC1
:103F0000B5EEC01AF1EE10FA20DD90ED051AD0EDF5
:103F1000031AF1EE611AB4EEE11AF1EE10FA04D8C8
:103F200090ED031AB1EE411A0DE090ED051AD0EDB7
:103F3000031AB4EEE11AF1EE10FA02DD90ED031A65
:103F400001E090ED051AF0EE410A01E0D0ED050A1E
:103F500090ED001A31EE201A80ED061A90ED011A4C
:103F6000D0ED061A31EE611AD0ED021A21EE211AB7
:103F700080ED041A90ED051AD0ED041A01EE801AB6
:103F800080ED051A7047D0ED000A90ED041A30EE6E
:103F9000811AD0ED050A41EE000AC0ED050AD0ED08
:103FA000010A90ED051A70EEC10A90ED021A60EE5A
:103FB000810AC0ED040AD0ED030AF5EEC00AF1EE65
:103FC00010FA1FDDD0ED040A90ED031AB1EE411A8C
:103FD000F4EEC10AF1EE10FA04D8D0ED030AF1EEC6
:103FE000600A0DE0D0ED040A90ED031AF4EEC10A68
:103FF000F1EE10FA02DDD0ED030A01E0D0ED040A83
:10400000C0ED040A7047F0EE401A9FEDFC2A20EE46
:10401000822A22EE212AB7EE003AC3EE022AB7EE38
:10402000002A32EE822AB7EE003AC3EE022A90ED61
:10403000002A31EE423A90ED002A02EE832A80ED0A
:10404000002AB5EEC01AF1EE10FA02DDB0EE412AF8
:1040500001E0B1EE412AB0EE420A90ED002AF1EE05
:10406000402AB4EEE22AF1EE10FA02D8B1EE402A6C
:104070000BE090ED002AB4EEC02AF1EE10FA02DD5A
:10408000B0EE402A01E090ED002A80ED012A704751
:10409000F0EE401A9FEDD92A20EE822A22EE212A44
:1040A000B7EE003AC3EE022AB7EE002A32EE822AB9
:1040B000B7EE003AC3EE022A90ED002A31EE423A02
:1040C00090ED002A02EE832A80ED002A90ED002A6E
:1040D000B5EEC02AF1EE10FA02DD90ED002A03E001
:1040E00090ED002AB1EE422AB0EE420AB1EE402A2B
:1040F000B4EEC21AF1EE10FA02D8B1EE402A09E08D
:10410000B4EEC01AF1EE10FA02DDB0EE402A01E082
:10411000B0EE412A80ED012A7047F0EE401A9FED83
:10412000B72A20EE822A22EE212AB7EE003AC3EE09
:10413000022AB7EE002A32EE822AB7EE003AC3EE28
:10414000022A90ED002A31EE423A90ED002A02EE6A
:10415000832A80ED002AB5EEC01AF1EE10FA02DDD6
:10416000B0EE412A01E0B1EE412AB0EE420A90EDF4
:10417000002AF1EE402AB4EEE22AF1EE10FA02D85B
:10418000B1EE402A0BE090ED002AB4EEC02AF1EE29
:1041900010FA02DDB0EE402A01E090ED002A80ED39
:1041A000002A80ED012A70472DE9F84F04460D469C
:1041B000DDF828804FF001094FF0000A0126B346D0
:1041C000CDF800B00127DFED8E0AB0EE600A0020C6
:1041D0008446D2F808B0C2F80CB092F800B00BF1E7
:1041E000010B0BF0FF0B82F800B0AB4502DB8346FE
:1041F00082F800B092F800B044F82B80D2F80CB0EE
:10420000A8EB0B0B00EE90BAB8EEE01A00EE903A75
:10421000F8EE600AC1EE201AB0EE610AB5EEC00AEF
:10422000F1EE10FA02DDF0EE400A01E0F1EE400A94
:10423000B7EE001AF4EEC10AF1EE10FA2BD2B5EE89
:10424000C00AF1EE10FA02DDB0EE401A01E0B1EE64
:10425000401A00EE903AF8EE600A61EE200AB0EEE5
:10426000001AF4EEC10AF1EE10FA04D2DFED640A8E
:10427000B0EE600A0FE0B5EEC00AF1EE10FA02DD12
:104280004FF0010B01E04FF0FF3B00EE90BAF8EE6B
:10429000E00AB0EE600AD06800BF00210DE054F8DB
:1042A00021B0ABEB000B54F821E0AEEB000E0BFBA2
:1042B0000ECC01F1010B0FFA8BF1A942EFDBD2F822
:1042C00004B0ACEB0B0BBBF1000F11DDB9F1000F2B
:1042D00003D14FF0000BCDF800B04FF00109012FD2
:1042E00002D14FF0FF3B01E04FF0010B5F4607E0CA
:1042F0004FF000099E4203DA06F1010B0BF0FF06B6
:10430000C2F804C04FF0000C00EE900AB8EEE01ABC
:1043100000EE907AF8EEE00A00EE801AFDEEC10A97
:1043200010EE900A0AF1010B0BF0FF0BDA469B45E9
:1043300002DDE346CDF800B0022E03DB4FF0000BA8
:10434000CDF800B0DDF800B0BBF1010FA5D0906052
:10435000D2E902BEABEB0E0BC2F810B0BDE8F88F8D
:1043600070B505460C461678761CF6B21670A64255
:1043700001DB00261670167805EB860686ED000A2E
:10438000002009E005EB800696ED001A03EB80069D
:1043900086ED001A461CF0B2A042F3DB002029E0B3
:1043A000002121E003EB810696ED001A4E1C03EB81
:1043B0008606D6ED001AB4EEE11AF1EE10FA11DD20
:1043C0004E1C03EB8606D6ED000A03EB810696ED44
:1043D000001A4E1C03EB860686ED001A03EB8106DD
:1043E000C6ED000A4E1CF1B2661E361A8E42D9DCAA
:1043F000461CF0B2661E8642D2DC70BDC3F5C840D2
:104400000000000030B50C4615886D1CADB215805B
:10441000A54201DB00251580158800EB8505D5ED4B
:10442000000A158800EB850585ED000A70EE601A1C
:1044300001EE104AB8EE412A81EE821AD3ED001A3D
:1044400031EE211A83ED001A93ED001AD3ED001A14
:1044500070EE611ABFEE002AF4EEC21AF1EE10FA05
:1044600002D8FFEE001A11E0D3ED001A70EE611AC7
:10447000B7EE002AF4EEC21AF1EE10FA02DDF7EE02
:10448000001A03E0D3ED001A70EE611A9FEDA82A1E
:1044900002EE211A83ED001A30BD5FED281A60EE9E
:1044A000211A21EEA02AF7EE002AC2EE821AB7EEF8
:1044B000002A71EE821AF7EE002A82EEA12AD0EDD0
:1044C000001A71EE612AD0ED001A42EE221AC0EDF8
:1044D000001A704770B52DED0A8BB0EE408AF0EEF1
:1044E000608AB0EE419AF0EE619A044694ED001BAA
:1044F000B0EE410AF0EE610A53EC102B51EC190BAF
:1045000015F0F3FA41EC1B0B1FED440A28EE000AEC
:1045100020EE280AB7EE001AC1EE000AB7EE000A34
:1045200030EE800AF7EE000A80EE801A11EE105A83
:10453000284615F082FB41EC1C0B53EC1B2B15F0AD
:10454000DAFA41EC1A0B94ED001BB0EE410AF0EEE2
:10455000610A53EC102B15F027FAC4E90001BDECF9
:104560000A8B70BD90ED001A30EEC11AB4EEC01A7D
:10457000F1EE10FA06DD90ED001A31EE001A80ED32
:10458000001A13E090ED001A30EEC11AF1EE401A55
:10459000B4EEE11AF1EE10FA06D290ED001A31EE07
:1045A000401A80ED001A01E0C0ED000A7047B0EE3D
:1045B000402A1FED6E0A20EE800A20EE020AB7EEB6
:1045C000003AC3EE002AB7EE000A32EE800AB7EED8
:1045D000003AC3EE002A90ED000A31EE403A90ED29
:1045E000000A02EE830A80ED000A90ED000AF1EE67
:1045F000612AB4EEE20AF1EE10FA02D8B1EE610AD5
:104600000BE090ED000AB4EEE10AF1EE10FA02DDE3
:10461000B0EE610A01E090ED000A80ED000A90ED35
:10462000000A31EE400A704770B504460D46164642
:10463000D4ED020A60EEA00A94ED011AD4ED011A3D
:1046400041EE210AB0EE600A00F038FF394880EDF3
:10465000000AD4ED020A60EEA00A94ED001AD4ED2F
:10466000001A41EE210AB0EE600A00F027FF32483E
:1046700080ED000A94ED020AB5EEC00AF1EE10FAE0
:1046800002D24FF0FF3000E001202C49087095ED78
:10469000000A2848D0ED000A60EE200A94ED001AC6
:1046A000084690F9000000EE100AB8EEC00A21EEAC
:1046B000000A95ED021A40EE410AC6ED000A0846CE
:1046C00090F9000000EE100AB8EEC00A1A48D0EDCA
:1046D000000A20EE200AD5ED010A20EE200AD4EDD2
:1046E000010A95ED021A00EEC10A86ED010A94ED69
:1046F000000AD5ED000A20EE200AD4ED010A95ED5E
:10470000011A00EE810AD4ED020A95ED021A00EEBC
:10471000810A86ED020A70BD70B504460D46164644
:10472000324629462046FFF77FFF70BD70470000E4
:10473000ACC52737FC00002000010020F800002055
:1047400090ED000AD1ED000A20EE200AD0ED010A1A
:1047500091ED011A00EE810A82ED000A90ED000A47
:10476000D1ED010AF1EE600A20EE200AD0ED010A37
:1047700091ED001A00EE810A82ED010A704790ED7A
:10478000000AD1ED000A20EE200AD0ED010A91EDD9
:10479000011AB1EE411A00EE810A82ED000A90ED95
:1047A000000AD1ED010A20EE200AD0ED010A91EDB8
:1047B000001A00EE810A82ED010A704730B5024608
:1047C0000B46002022E0DFEDFE0AB0EE600A002179
:1047D00014E000EB4004FB4D05EB840404EB810482
:1047E00094ED001A02EB8104D4ED001AF0EE400AB9
:1047F00041EE810AB0EE600A4C1CE1B20329E8DB0D
:1048000003EB800181ED000A411CC8B20328DADB0A
:1048100030BD2DE9F0412DED068B86B0F0EE409ACB
:104820000546884617461E46129C94ED000AD4EDB4
:10483000010A20EE200AE44880ED000A94ED000A07
:10484000D4ED020A20EE200AE04880ED000A94ED43
:10485000010A20EE000ADE4880ED000A94ED010A0C
:10486000D4ED030A20EE200ADA4880ED000A94ED28
:10487000020A20EE000AD84880ED000A94ED020AF0
:10488000D4ED030A20EE200AD44880ED000A94ED0E
:10489000030A20EE000AD24880ED000A94ED010AD6
:1048A000D4ED020A20EE200ACE4880ED000A94EDF5
:1048B000000AD4ED030A20EE200ACB4880ED000A5E
:1048C000287DE8B300203DE0002100EE101A00BF73
:1048D00018E001EB4102BB4B03EB820202EB8002CA
:1048E00092ED001A04F17C0202EB8102D2ED001A73
:1048F000F8EEC00A41EE810AFDEEE00AB0EE600A71
:104900004A1CD1B20329E4DBF8EEC00A04F18801A5
:1049100001EB8001C1ED000A07EB8001D1ED000A37
:1049200004F1880101EB800191ED001A70EEC10ADB
:1049300004F1940101EB8001C1ED000A411C00E08B
:1049400003E0C8B20328BFDB0FE000200BE007EB59
:10495000800191ED000A04F1940101EB800181EDE9
:10496000000A411CC8B20328F1DBD4ED250A60EE31
:10497000A00A94ED261AD4ED261A41EE210A94EDF0
:10498000271AD4ED271A41EE210AB0EE600A00F092
:104990006FFDF0EE408AF5EEC08AF1EE10FA02D11A
:1049A0009FED870A03E0F7EE000A80EEA80AB0EE5A
:1049B00040AA00200EE004F1940101EB800191ED8A
:1049C000000A20EE280A03A901EB800181ED000A0C
:1049D000411CC8B20328EEDB7F4890ED000AF0EEE0
:1049E000000A20EE200A7E48D0ED000AB0EE001A40
:1049F00001EE200AF7EE000A30EEC00A84ED040A48
:104A0000704880ED000A774890ED000AF0EE000A49
:104A100020EE200A7448D0ED000AB0EE001A01EE34
:104A2000600A84ED050A674880ED010A694890ED47
:104A3000000AF0EE000A20EE200A6448D0ED000AD9
:104A4000B0EE001A01EE200A84ED060A5D4880ED02
:104A5000020A644890ED000AF0EE000A20EE200AF7
:104A60006148D0ED000AB0EE001A01EE200A84ED94
:104A7000070A544880ED030A554890ED000AF0EE0D
:104A8000000A20EE200A5648D0ED000AB0EE001AC7
:104A900001EE200AF7EE000A30EEC00A84ED080AA3
:104AA000484880ED040A4D4890ED000AF0EE000AF7
:104AB00020EE200A4448D0ED000AB0EE001A01EEC4
:104AC000600A84ED090A3F4880ED050A414890EDEF
:104AD000000AF0EE000A20EE200A3C48D0ED000A61
:104AE000B0EE001A01EE600A84ED0A0A354880ED46
:104AF000060A3A4890ED000AF0EE000A20EE200A7D
:104B00003148D0ED000AB0EE001A01EE200A84ED23
:104B10000B0A2C4880ED070A2D4890ED000AF0EEB4
:104B2000000A20EE200A2C48D0ED000AB0EE001A50
:104B300001EE200AF7EE000A30EEC00A84ED0C0AFE
:104B4000204880ED080AD0ED000A60EEA00A90ED42
:104B5000031AD0ED031A41EE210AB0EE600A00F00C
:104B600087FCB0EE409A174890ED000A20EE090A43
:104B700084ED0D0A90ED030A20EE090A84ED0E0A79
:104B8000002019E007EB800191ED000A04F12801F3
:104B900001EB8001D1ED000A9FED141A01EE600ACD
:104BA000BDEEC00AB8EEC00A04F1400101EB80017D
:104BB00081ED000A411CC8B20328E3DB002041E07C
:104BC00000000000D8110020EC010020F0010020BE
:104BD000F4010020F8010020FC0100200002002068
:104BE00004020020080200200C020020004075444E
:104BF000002100EE101A00BF18E000EB4002F84B55
:104C000003EB820202EB810292ED001A04F14002F2
:104C100002EB8102D2ED001AF8EEC00A41EE810AE1
:104C2000FDEEE00AB0EE600A4A1CD1B20329E4DBD3
:104C3000F8EEC00A04F14C0101EB8001C1ED000A5D
:104C4000411CC8B20328D3DB04F15802E54904F142
:104C50004C00FFF775FD9DED040AD4ED0C0A20EE23
:104C6000200AD4ED0B0A9DED051A00EEC10ADE48BC
:104C700080ED000A9DED030AD4ED0C0A20EE200A17
:104C8000D4ED0A0A9DED051A10EE810A80ED010AA5
:104C90009DED040AD4ED0A0A20EE200AD4ED0B0A99
:104CA0009DED031A10EE810A80ED020A00200CE04F
:104CB00036F9101000EE101AB8EEC00ACB4901EB1D
:104CC000800181ED000A411CC8B20328F0DB308866
:104CD00018B9708808B9B088E8B304F16401C34812
:104CE000FFF76CFDD4ED190A60EEA00A94ED1A1AD4
:104CF000D4ED1A1A41EE210AB0EE600A00F0B8FBBA
:104D0000F0EE40AA94ED190A20EE2A0AB84880ED88
:104D1000020A94ED1A0A20EE2A0A80ED030A0146DF
:104D2000083000F0ADFEB34880ED000AB04901F153
:104D3000080000F0B2FEB04880ED000A90ED000AD5
:104D4000B5EEC00AF1EE10FA26D2AA4890ED000A9C
:104D5000DFEDAA0A00E020E0B4EEE00AF1EE10FA7E
:104D600001DD01200DE0A34890ED000ADFEDA40A6B
:104D7000B4EEE00AF1EE10FA02D24FF0FF3000E09C
:104D8000002000EE100AB8EEC00AF7EE000A20EE8E
:104D9000200A984880ED000A00BF00207CE09FEDCB
:104DA000990AB4EEC0AAF1EE10FA06DC9FED960A5D
:104DB000B4EEC0AAF1EE10FA08D21FED7F0A8A49BC
:104DC00081ED020A81ED010A81ED000A8F4901EBB4
:104DD000800191ED000A844901EB8001D1ED000AC8
:104DE0009FED8B1AF4EEC10AF1EE10FA02D8DFED56
:104DF000880A13E07C4901EB8001D1ED000A9FEDA8
:104E0000851AF4EEC10AF1EE10FA02DDDFED810A37
:104E100004E0754901EB8001D1ED000A60EEA90ABA
:104E20007D4991ED001A00EE810A784901EB80017D
:104E300081ED000A6C4901EB800191ED000A734994
:104E400001EB8001D1ED000A70EE200A08EB800131
:104E500091ED000A714991ED001A00EE810A04F10A
:104E6000280101EB8001D1ED000A624991ED001AA1
:104E700060EE810A6A4991ED001A00EE810A20EE87
:104E8000290AF0EE000A80EE201A694601EB800143
:104E900081ED001A411CC8B2032880DB94ED000AA2
:104EA000D4ED010A9DED001A00EEC10AD4ED020A0C
:104EB0009DED011A00EEC10AD4ED030A9DED021A20
:104EC00000EEC10A84ED000A94ED010AD4ED000A57
:104ED0009DED001A00EE810AD4ED020A9DED021A42
:104EE00000EE810AD4ED030A9DED011A00EEC10A1D
:104EF00084ED010A94ED000ADDED010A20EE200A9E
:104F0000D4ED010A9DED021A00EEC10AD4ED020AA9
:104F100030EE200AD4ED030A9DED001A00EE810A5E
:104F200084ED020A94ED000ADDED020A20EE200A6B
:104F3000D4ED010A9DED011A00EE810AD4ED020ABA
:104F40009DED001A00EEC10AD4ED030A30EE200AEE
:104F500084ED030AD4ED000A60EEA00A94ED011A74
:104F6000D4ED011A41EE210A94ED021AD4ED021A91
:104F700041EE210A94ED031AD4ED031A41EE210A01
:104F8000B0EE600A00F074FAB0EE408AD4ED000A88
:104F9000B0EE480A20EE800A84ED000AD4ED010A42
:104FA000B0EE480A20EE800A84ED010AD4ED020A30
:104FB000B0EE480A20EE800A84ED020AD4ED030A1E
:104FC000B0EE480A20EE800A84ED030AE87C58BB64
:104FD0009FED140A124880ED000A0020687451E029
:104FE000D811002038010020FC11002014120020EC
:104FF000380200201002002014020020BD37863540
:10500000BD3786B50080844400006144081200204A
:10501000CDCCCCBDCDCCCC3D500200204C020020EC
:105020005402002000000000FFE7687C28B3B2EEC5
:10503000040A9C4880ED000A9B4890ED000AB5EEFA
:10504000C00AF1EE10FA1DD090ED000AB5EEC00ACC
:10505000F1EE10FA02DD90ED000A04E0924890EDC6
:10506000000AB1EE400ADFED910AB4EEE00AF1EE7B
:1050700010FA07D20020687404E095ED020A89480E
:1050800080ED000AA87C28B91FED1A0A884880ED37
:10509000000A77E0287C50B995ED000A844880ED3D
:1050A000000A95ED010A834880ED000A6AE0B2EE3D
:1050B000040A7F4880ED000A1FED260A7D4880ED36
:1050C000000A7D4890ED000AB5EEC00AF1EE10FA34
:1050D00002DD90ED000A04E0774890ED000AB1EEA1
:1050E000400A7548D0ED010AF5EEC00AF1EE10FA5B
:1050F00002DDD0ED010A04E06F48D0ED010AF1EEC7
:10510000600A30EE200A6D4880ED000A90ED000A3A
:10511000B5EEC00AF1EE10FA02D81FED3E0A0FE01C
:10512000664890ED000AF7EE000AB4EEE00AF1EEF0
:1051300010FA02DDB7EE000A02E0604890ED000AC6
:105140005E4880ED000A90ED000ADFED5D0AB4EEE6
:10515000E00AF1EE10FA12D2687C80B95948007862
:1051600068B159480088801C574908800846008863
:10517000B0F5C87F06DD00200880287402E000201A
:105180005149088006B0BDEC068BBDE8F08110B532
:105190002DED028B4D48D0ED060A90ED061AB7EEC4
:1051A000000A00EEC10AB5EEC00AF1EE10FA02D80C
:1051B0001FED640A1BE04548D0ED060A90ED061A83
:1051C000B7EE000A00EEC10AF7EE000AB4EEE00AFC
:1051D000F1EE10FA02DDB7EE000A08E03B48D0ED30
:1051E000060A90ED061AB7EE000A00EEC10A38482A
:1051F00080ED000A374890ED0C0AB5EEC00AF1EEDA
:1052000010FA02DD90ED0C0A04E0324890ED0C0A31
:10521000B1EE400ADFED300AB4EEE00AF1EE10FA2A
:105220003CDD2B4890ED000A00F048F9B0EE408AD2
:105230002648D0ED060AB0EE600AF0EE480A00F00B
:105240005CF8DFED260A20EE200A224880ED380ABD
:105250001E4890ED081AF0EE410A90ED071AB0EEE4
:10526000410A00F04AF8DFED1D0A20EE200A194835
:1052700080ED370A154890ED001AF0EE410A90EDE6
:10528000031AB0EE410A00F038F8B1EE400ADFED43
:10529000130A20EE200A0F4880ED390ABDEC028B7C
:1052A00010BD000054020020100200200AD7233C49
:1052B0004C02002050020020FC11002018020020A7
:1052C0000AD7A33C502F00201C020020D811002038
:1052D0004802002004010020CDCC4C3D3333654210
:1052E000F0EE400AF5EEC00AF1EE10FA02DBB0EE85
:1052F000600A7047B1EE600AFBE700B5B0EE403AD5
:10530000B0EE602AB5EEC03AF1EE10FA07D1B5EE74
:10531000C02AF1EE10FA02D19FEDFC1A99E0B0EE2E
:10532000430AFFF7DDFFF0EE403AB0EE420AFFF726
:10533000D7FFF0EE402AF4EEE23AF1EE10FA02D294
:1053400083EEA24A01E082EEA34A9FEDF10AB4EE99
:10535000C04AF1EE10FA02D2F0EE441A2DE0DFED71
:10536000ED0AB6EE000A14EE200AF0EE404ABDEE59
:10537000E40A10EE100A00EE100AB8EEC00A34EE8D
:10538000C00AF0EE404AE44901EB800191ED000AC9
:10539000F0EE401AE04A411C02EB810191ED000A57
:1053A000114601EB8001D1ED000A70EE600AB0EE0B
:1053B000610A00EEA40AF0EE401AF4EEE32AF1EEE0
:1053C00010FA20DDB5EEC02AF1EE10FA0ADBB5EED8
:1053D000C03AF1EE10FA02DBB0EE611A39E0B1EE3C
:1053E000611A36E09FEDCD1AB5EEC03AF1EE10FA33
:1053F00004DB31EE610AB0EE401A2AE031EEC10A58
:10540000B0EE401A25E0B5EEC03AF1EE10FA10DB2E
:105410009FEDC31AB5EEC02AF1EE10FA04DB31EEAF
:10542000610AB0EE401A14E031EE210AB0EE401AE3
:105430000FE09FEDBC1AB5EEC02AF1EE10FA04DBC6
:1054400031EE210AB0EE401A03E031EE610AB0EE0F
:10545000401AB0EE410A00BD00B5B0EE405AF0EE81
:10546000605AF0EE450AB0EE650AFFF746FF00BD50
:10547000F0EE400AF6EE001A60EEA11AB0EE611AE4
:10548000B0EE600A10EE100AA749A1EB600000EE32
:10549000100A21EE002AF7EE081A42EE401A61EED9
:1054A000801AB0EE610A21EE002AF7EE081A42EEE9
:1054B000401A61EE801AB0EE610A704700B5F0EE56
:1054C000402AB0EE620AFFF7D3FF20EE220A00BDA9
:1054D00010B52DED0A8BB0EE409AF0EE609A9FED7C
:1054E000930B53EC102B51EC190B14F0B9FB18D2A1
:1054F0009FED900B53EC102B51EC190B14F0FBFAB1
:1055000041EC1B0B9FED8D0B53EC102B14F04CFA60
:1055100041EC1A0B53EC192B14F0EDFA41EC180B7B
:1055200017E09FED840B53EC102B51EC190B14F08A
:10553000E2FA41EC1B0B9FED810B53EC102B14F0A6
:10554000D7FA41EC1A0B53EC192B14F0D4FA41ECB6
:10555000180B9FED760B53EC102B51EC180B14F03D
:105560007FFB20D29FED770B53EC102B51EC180BE7
:1055700014F01AFA41EC1C0B9FED740B53EC102B3A
:1055800014F0B9FA41EC1B0B9FED6E0B53EC102B92
:1055900014F00AFA41EC1A0B53EC182B14F0ABFA86
:1055A00041EC180B1FE09FED670B53EC102B51ECF7
:1055B000180B14F09AFA41EC1C0B9FED660B53ECA0
:1055C000102B14F098FA41EC1B0B9FED5E0B53EC83
:1055D000102B14F0E9F941EC1A0B53EC182B14F0D2
:1055E0008AFA41EC180BB0EE480AF0EE680ABDECFE
:1055F0000A8B10BD10B52DED068BB0EE408AF0EE93
:10560000608A01249FED550B53EC102B51EC180BC5
:1056100014F03EFB0AD89FED510B53EC102B51ECCC
:10562000180B14F062FA41EC180BA41E204614F07B
:10563000D4FA41EC190BB0EE480AF0EE680AFFF715
:1056400047FFB0EE40AAF0EE60AA53EC192B51ECE4
:105650001A0B14F050FA41EC100BBDEC068B10BD88
:1056600010B52DED088BB0EE408AF0EE608A012473
:105670009FED3C0B53EC102B51EC180B14F094F9EC
:1056800041EC180B9FED350B53EC102B51EC180B24
:1056900014F0FEFA0AD8A41E9FED300B53EC102B29
:1056A00051EC180B14F021FA41EC180B204614F0C1
:1056B00094FA41EC1A0BB0EE480AF0EE680AFFF7D4
:1056C00099FFB0EE40BAF0EE60BA53EC1A2B51ECF1
:1056D0001B0B14F010FA41EC190B14F0F1FA00EE68
:1056E000100ABDEC088B10BDF0EE401AF4EEE01A83
:1056F000F1EE10FA3ADD31EEC10AB4EEE00AF1EE55
:1057000010FA3CD2B0EE600A39E000000000000060
:105710008180803B00008043A8A00108DB0F494046
:10572000DB0FC93FDB0FC9BFDF59375F0000000047
:1057300000000000000000602FF0D93F0000006072
:10574000305FF43F000000000000F03F000000C0A8
:10575000CCCCCCBF000000C0CCCCCC3FF1D4C853E3
:10576000FB210940F1D4C853FB21F93F31EE810AF6
:10577000B4EEE00AF1EE10FA01DDB0EE600A704717
:10578000F0EE401AB1EE412A32EE202AB4EEE12AC0
:10579000F1EE10FA09D231EE202AB4EEE12AF1EE50
:1057A00010FA02DDB0EE600A01E0B0EE610A704767
:1057B000F0EE402AB5EEC01AF1EE10FA02DDB0EEBE
:1057C000410A01E0B1EE410AB6EE003A22EE033A98
:1057D00023EE213AB4EEC30AF1EE10FA06D29FEDA1
:1057E000E90A20EE800AF0EE400A4DE0B5EEC01A5C
:1057F000F1EE10FA02DDB0EE410A01E0B1EE410A2D
:1058000022EE213AB4EEC30AF1EE10FA06D29FED71
:10581000DE0A20EE800AF0EE400A35E0B5EEC01A4E
:10582000F1EE10FA02DDB0EE410A01E0B1EE410AFC
:10583000B4EEE10AF1EE10FA06D2B6EE000A20EE5E
:10584000800AF0EE400A1FE0B5EEC01AF1EE10FA41
:1058500002DDB0EE410A01E0B1EE410AB0EE003ADD
:1058600021EE833AB4EEC30AF1EE10FA06D29FEDB0
:10587000C70A20EE800AF0EE400A05E09FEDC40A58
:1058800020EE800AF0EE400A9FEDC20A20EE800A68
:1058900020EE223AF7EE003A83EE830AB7EE003AA2
:1058A00030EE030AF7EE003A83EE803A90ED000AFC
:1058B00071EE403A90ED000A03EE230A80ED000AF3
:1058C00090ED000AB1EE423A23EE213AB4EEC30A5B
:1058D000F1EE10FA04D8B1EE420A20EE210A0DE0F2
:1058E00090ED000A22EE213AB4EEC30AF1EE10FA6E
:1058F00002DD22EE210A01E090ED000A80ED000AAF
:1059000090ED000A31EE400A704710B52DED028B84
:10591000B0EE408AF0EE608A9FED9F0B53EC102BA7
:1059200051EC180B14F0B4F90CD29FED9D0B53EC15
:10593000102B51EC180B14F0D8F841EC100BBDEC07
:10594000028B10BD9FED980B53EC102B51EC180BF4
:1059500014F086F90AD29FED920B53EC102B51EC08
:10596000180B14F021F841EC100BE8E7B0EE480AF0
:10597000F0EE680AE3E710B504460B46F0EE403A55
:10598000D4ED000A60EEA00A93ED001AD3ED001AE0
:1059900041EE210AB0EE600AFFF790FDB0EE403A0A
:1059A000B5EEC03AF1EE10FA02D81FEDA80A09E0F0
:1059B000B4EEE33AF1EE10FA02DDB0EE630A01E074
:1059C000B0EE430AB0EE404AB5EEC03AF1EE10FA3E
:1059D00006D11FEDB20A82ED010A82ED000A0FE046
:1059E00084EE030AD4ED000A20EE200A82ED000ABC
:1059F00084EE030AD3ED000A20EE200A82ED010AAC
:105A000010BDF0EE400A0B7802EB8303C3ED000AF1
:105A10000B785B1C0B700B78834201DB00230B704F
:105A20000B7802EB830393ED000A704700B5024642
:105A3000B0EE403A0B46F7EE000A43EE430AB0EEF2
:105A4000600AFFF73BFDD2ED000A20EE200AD2EDFE
:105A5000010A00EEC30A83ED000AF7EE000A43EEE6
:105A6000430AB0EE600AFFF729FDD2ED010A20EEED
:105A7000200AD2ED000A00EE830A83ED010A00BD80
:105A800090ED000AD1ED010A20EE200AD0ED010AC6
:105A900091ED001A00EEC10A704790ED000AD1EDB9
:105AA000000A20EE200AD0ED010A91ED011A00EE65
:105AB000810A704790ED010AD1ED020A20EE200A1A
:105AC000D0ED020A91ED011A00EEC10A82ED000A42
:105AD00090ED020AD1ED000A20EE200AD0ED000A76
